:100000000040002055720000973400003358000073
:100010006F6300000F6400007B71000000000000AF
:10002000000000000000000000000000411A000075
:100030003173000000000000E91900006D14000099
:10004000457800004D780000557800005D7800008C
:10005000657800006D780000757800007D780000FC
:10006000857800008D780000957800009D7800006C
:10007000A5780000AD780000B5780000BD780000DC
:10008000C57800007D7900007D7900007D79000051
:100090007D7900007D7900007D7900007D79000088
:1000A000CD7800007D790000D57800007D790000D2
:1000B0007D7900007D7900007D790000DD78000009
:1000C000E5780000ED780000F57800007D7900000B
:1000D0007D7900007D7900007D7900007D79000048
:1000E0007D7900007D7900007D7900007D79000038
:1000F0007D7900007D7900007D7900007D79000028
:100100007D7900007D7900007D7900007D79000017
:100110007D7900007D7900007D7900007D79000007
:100120007D7900007D790000F36F0000915500009B
:100130007D7900007D7900007D7900007D790000E7
:100140007D7900007D7900007D7900007D790000D7
:100150007D7900007D7900007D7900007D790000C7
:100160007D7900007D7900007D790000FD78000038
:10017000057900000D790000157900001D79000057
:10018000257900007D7900007D7900007D790000EF
:100190007D7900007D7900007D7900007D79000087
:1001A0007D7900007D7900007D7900007D79000077
:1001B0007D7900007D7900002D79000035790000FF
:1001C0003D790000457900004D7900005579000027
:1001D0007D7900007D7900007D7900007D79000047
:1001E0007D7900007D7900007D7900007D79000037
:1001F0007D7900007D7900007D7900007D79000027
:100200007D7900007D7900007D7900007D79000016
:1003F0007D7900007D7900007D790000FFFFFFFF1F
:10040000FFFFFFFFFFFFFFFFFFFFFFFFFEFFFFFFFD
:100410002DE9F84F84B006000F0090469946DDF8AC
:1004200038A0DDF83CB0404680B2800000F0A4FD6A
:100430000500002D0BD0742000F09EFD0400002C60
:1004400001D0256304E0280000F026FE00E000242F
:10045000002C12D0002003900294CDF804B0CDF807
:1004600000A04B46424692B23900300000F00AF834
:10047000200000F088F8012001E05FF0FF3005B0B7
:10048000BDE8F08F2DE9F94F81B00C0016000C9FEC
:100490000D9DDDF83880B00000905FF0A50BD8F816
:1004A00030A05A460099504600F0A0FED8F830001F
:1004B00000EB8600B0F1040A5FEADA0A5FEACA0AD2
:1004C0001AF00700002807D0202080F31188BFF31E
:1004D0004F8FBFF36F8FFEE7C8F844A0002C15D0F4
:1004E00000208146B9F1100F0CD214F8090008EB76
:1004F000090181F8340014F80900002802D019F12C
:100500000109EFE7002088F8430002E0002088F8A6
:100510003400052F01D304200700C8F82C70C8F858
:1005200050700020C8F8540018F1040000F0A0FE3C
:1005300018F1180000F09CFEC8F81080D7F10500F3
:10054000C8F81800C8F824805FF0000BBBF1050F55
:1005500006D2002008EB8B0188651BF1010BF5E743
:100560000020C8F86C00002088F87000029A0199F9
:10057000504600F0BBFEC8F80000002D01D0C5F8C1
:100580000080BDE8F78F38B5040000F03FFFDFF8CA
:10059000E0130868401C0860DFF8D853286800287A
:1005A00006D12C60086801280DD100F0C1FA0AE0DC
:1005B000DFF8C4030068002805D1E06A2968C96A29
:1005C000884200D32C60DFF8B4030168491C016045
:1005D0000068A064DFF8A8130A680123E06A83407A
:1005E0001A430A60211DDFF8DC23E36A1420434329
:1005F00002EB030000F03FFE00F022FFDFF878037B
:10060000006800280DD02868C06AE16A884208D2D4
:100610005FF08050DFF84C140860BFF34F8FBFF3DA
:100620006F8F31BD38B505000024002D15D0DFF8DF
:100630001C040068002807D0202080F31188BFF335
:100640004F8FBFF36F8FFEE700F04CF800212800BA
:1006500000F034FC00F04CF80400002C08D15FF0EE
:100660008050DFF800140860BFF34F8FBFF36F8F27
:1006700031BD1CB5DFF86406019000200090002316
:100680005A22DFF85C160FF27D40FFF7C1FE04002E
:10069000012C02D100F058FF0400012C16D12020BB
:1006A00080F31188BFF34F8FBFF36F8F5FF0FF3080
:1006B000DFF8301608600120DFF8BC120860002067
:1006C000DFF8A413086000F03AFE0AE014F1010F0D
:1006D00007D1202080F31188BFF34F8FBFF36F8FB6
:1006E000FEE713BDDFF864030168491C0160704731
:1006F000F8B500250026DFF854432068002807D10C
:10070000202080F31188BFF34F8FBFF36F8FFEE778
:1007100000F07CFE2068401E20602068002855D133
:1007200093480068002851D0DFF8AC15086800280D
:1007300026D0C868C068050015F1180000F0C2FD99
:10074000281D00F0BFFDDFF838120A680123E86AAF
:1007500083401A430A60291DDFF86822EB6A1420DF
:10076000434302EB030000F086FDE86A8149096813
:10077000C96A8842D8D30120DFF80C160860D3E795
:10078000002D01D000F027FADFF85C753C68002CE2
:100790000CD000F023F8002803D00120DFF8E81582
:1007A0000860641E002CF4D100203860DFF8D80502
:1007B000006800280AD0012006005FF08050DFF8B2
:1007C000A4120860BFF34F8FBFF36F8F00F038FEA5
:1007D0003000F2BDDFF89002006870472DE9F0416B
:1007E00000279A480068002862D1DFF87C0204687C
:1007F000641C0460002C1CD1DFF82C13086800680E
:10080000002807D0202080F31188BFF34F8FBFF35B
:100810006F8FFEE7D1F80080DFF8100302680A60EE
:10082000C0F80080DFF864050168491C016000F031
:10083000D2F9DFF8B084D8F8000084423DD3DFF865
:10084000E81208680068002804D15FF0FF30C8F89B
:10085000000032E00868C068C068050068680600EB
:10086000B44202D2C8F8006027E0281D00F02AFD3B
:10087000A86A002803D015F1180000F023FD4049B4
:100880000A680123E86A83401A430A60291D4D4A19
:10089000EB6A1420434302EB030000F0ECFCE86A2F
:1008A00034490968C96A8842C9D301200700C6E7EC
:1008B000DFF834040168491C0160DFF8CC040068EB
:1008C000002801D0012007003800BDE8F0815F4812
:1008D0000068002804D00120DFF8AC1408602BE089
:1008E0000020DFF8A414086025480068B0FA80F101
:1008F000D1F11F011422334B02FB01F018580028DC
:1009000007D1202080F31188BFF34F8FBFF36F8F83
:10091000FEE702FB01F203EB02004268526842600C
:10092000426810F108039A4202D14268526842605C
:100930004068C0680F4A1060704738B504000D0069
:10094000002C07D1202080F31188BFF34F8FBFF315
:100950006F8FFEE7DFF85C05006810F118012000DA
:1009600000F095FC0121280000F0A8FA31BD00003C
:10097000042A00202C290020102A0020202A0020F0
:100980000C2A002070B505000E001400002D07D1C0
:10099000202080F31188BFF34F8FBFF36F8FFEE7E6
:1009A000DFF81005006810F11801280000F063FC62
:1009B000002C02D05FF0FF3006002100300000F074
:1009C0007DFA70BD3029002038B50500E868C4689C
:1009D000002C07D1202080F31188BFF34F8FBFF385
:1009E0006F8FFEE714F1180000F06CFC17480068E8
:1009F000002815D1201D00F065FCDFF8B0140A684E
:100A00000123E06A83401A430A60211DDFF8A02415
:100A1000E36A1420434302EB030000F02CFC05E0E2
:100A200014F11801DFF8B00200F025FCDFF88404AF
:100A30000068C06AE16A884205D201200121DFF81E
:100A40006824116000E0002032BD00002C2A002044
:100A5000DFF8381309680160DFF8E41409684160C1
:100A60007047000004ED00E0082A00202DE9F04165
:100A700004000D00002C07D1202080F31188BFF363
:100A80004F8FBFF36F8FFEE7002D07D1202080F33B
:100A90001188BFF34F8FBFF36F8FFEE700F0B6FCF6
:100AA000DFF89C0406686768F71B286810F1010FDF
:100AB00002D15FF000081BE0DFF8D0020068216877
:100AC000884205D06068864202D35FF001080FE0DB
:100AD0002868874208D22868C01B28602000FFF7DA
:100AE000B7FF5FF0000803E0002028605FF0010816
:100AF00000F0A6FC4046BDE8F0810120DFF8A81315
:100B00000860704710B5040000F03DF8DFF8A0035E
:100B100000680228F8D35FF0805041490860BFF3B5
:100B20004F8FBFF36F8FEFE7BC290020C029002053
:100B300070B50024052C09D2DFF87403142101FBE1
:100B400004F1084400F085FB641CF3E7DFF8F85378
:100B5000280000F07EFBDFF8F463300000F079FB42
:100B6000DFF8740100F075FBDFF8E40300F071FBBF
:100B7000DFF8E00300F06DFBDFF8DC030560DFF871
:100B8000DC03066070BD38B5DFF8D4532868002850
:100B900017D000F03BFCDFF8B803C068C068040061
:100BA000201D00F08FFBDFF8BC030168491E0160C7
:100BB0002868401E286000F043FC200000F002F886
:100BC000E2E731BD10B50400206B00F065FA2000AB
:100BD00000F062FA10BDDFF880231068006800287A
:100BE00004D15FF0FF303F4A106006E01068C06833
:100BF000C068010048683B4A10607047DFF868032E
:100C00000068002801D1012007E0DFF8AC0200688D
:100C1000002801D1022000E0002070470000000001
:100C200004ED00E070B5040025000026002C50D033
:100C3000DFF880020068854207D0202080F3118809
:100C4000BFF34F8FBFF36F8FFEE7686D002807D1AA
:100C5000202080F31188BFF34F8FBFF36F8FFEE723
:100C6000686D401E6865E86A296D884231D0686DFC
:100C700000282ED1281D00F025FB00280FD1DFF819
:100C80003012EA6A142042438858002807D1DFF85E
:100C90001C120A680123E86A83409A430A60286D9F
:100CA000E862E86AD0F10500A861DFF800120A687E
:100CB0000123E86A83401A430A60291DDFF8F02106
:100CC000EB6A1420434302EB030000F0D4FA012046
:100CD0000600300070BD0000C4290020282A002032
:100CE00004780000242A0020142A00202DE9F8436B
:100CF00006000F0014001D0000F088FBDFF8B4812F
:100D0000D8F8000090F87000022818D0D8F8000039
:100D1000C16EB143C1660120D8F8001081F870009F
:100D2000002D0CD00121280000F0C8F85FF08050A1
:100D3000DFF83C120860BFF34F8FBFF36F8F00F0F6
:100D40007FFB00F063FB002C03D0D8F80000C06EDE
:100D50002060D8F8000090F87000022802D05FF000
:100D6000000906E0D8F80000C16EB943C1665FF023
:100D700001090020D8F8001081F8700000F060FB35
:100D80004846BDE8F2830000182A00201C2A0020F3
:100D90002DE9F04704000E0017001D005FF0010868
:100DA000002C07D1202080F31188BFF34F8FBFF3B1
:100DB0006F8FFEE7A14600F029FB002D02D0D9F885
:100DC0006C00286099F870A0022089F87000380043
:100DD000C0B200281FD002280AD003D3042810D0A4
:100DE0000CD319E0D9F86C003043C9F86C0020E04E
:100DF000D9F86C00401CC9F86C001AE0C9F86C60A6
:100E000017E05046C0B2022802D0C9F86C6001E079
:100E1000002080460DE00CE0D9F86C0010F1010FC5
:100E200007D0202080F31188BFF34F8FBFF36F8F5F
:100E3000FEE75046C0B2012831D119F1040000F09C
:100E400041FA1A490A680123D9F82C0083401A4351
:100E50000A6019F10401164AD9F82C3014204343D2
:100E600002EB030000F007FAD9F82800002807D0A9
:100E7000202080F31188BFF34F8FBFF36F8FFEE701
:100E80000C480068C06AD9F82C10884207D25FF07D
:100E9000805037490860BFF34F8FBFF36F8F00F06A
:100EA000CFFA4046BDE8F087182A00200C2A00201F
:100EB000302900202C2900202C2A00202DE9F04187
:100EC00005000C001E480768DFF87880D8F800009D
:100ED000001D00F0F7F9002808D1D8F800002349D8
:100EE0000A680123C06A83409A430A6015F1010F22
:100EF00008D1002C06D0D8F80000011D154800F0DC
:100F0000BAF91AE0E8190600D8F800004660BE42B7
:100F100007D2D8F80000011D1048006800F0B7F9AA
:100F20000BE0D8F80000011D0B48006800F0AFF995
:100F3000104801688E4200D20660BDE8F0810000D2
:100F4000082A00202C29002094290020A82900200C
:100F5000D8290020F0290020BC290020C029002029
:100F6000EC290020042A0020102A00200C2A00204E
:100F700004ED00E0242A00202DE9F84F04005FF082
:100F80000008FFF7AFFBDFF84892D9F8000000280F
:100F900001D100F0BBF8DFF83CA2DAF8000004420F
:100FA00069D1002C15D08C480068041914F0070F83
:100FB0000FD014F1080014F00704041B14F0070FFD
:100FC00007D0202080F31188BFF34F8FBFF36F8FBE
:100FD000FEE7002C4FD0DFF804B2DBF80000A0429F
:100FE00049D37F480600006805006868A04205D222
:100FF0002868002802D02E002D68F6E7D9F80000F6
:10100000854238D07448316802681144884629689E
:101010003160006840006968091B884215D205EB01
:101020000400070017F00700002807D0202080F3F5
:101030001188BFF34F8FBFF36F8FFEE76868001B07
:1010400078606C60380000F092F8DBF80010686897
:10105000091ACBF800106348DBF8001002689142CF
:1010600002D2DBF8001001606968DAF80000014381
:10107000696000202860FFF73BFB18F0070000289C
:1010800007D0202080F31188BFF34F8FBFF36F8FFD
:10109000FEE74046BDE8F28F70B504002600002C44
:1010A00033D04D48006840420644350049496868DD
:1010B0000A68104207D1202080F31188BFF34F8FB8
:1010C000BFF36F8FFEE72868002807D0202080F349
:1010D0001188BFF34F8FBFF36F8FFEE768680A6810
:1010E000104212D0286800280FD16A68086882432D
:1010F0006A60FFF7F7FA39490A68686882180A6077
:10110000280000F034F8FFF7F3FA70BD70B44FF424
:1011100020523548010011F0070F04D0C91DC9083D
:10112000C900521A82180B002D4803600024446045
:10113000D41829480068241AE408E400244D2C60DF
:1011400000202E68706000202E6830601800261A7B
:1011500046602D6805604568224E356045681F4E23
:1011600035605FF000451B4E356070BC704730B491
:101170001B4A1168814201D21268FAE714005168D3
:101180002144814204D153684168CB185360100058
:101190000300416819441568A94210D10C4914682C
:1011A0000D68AC4208D04468116849680C19446065
:1011B00011680968016004E00968016001E01168D4
:1011C0000160824200D0106030BC70470000000017
:1011D000B8280020C428002070790000BC28002016
:1011E000B0280020C0280020B000002062F30F22A9
:1011F00062F31F42401810F0030308D0C91A1FD32E
:10120000DB0748BF00F8012D28BF20F8022D13008E
:1012100030B414461546103928BF20E93C00FAD8EE
:10122000490728BF20E90C0048BF40F8042D890079
:1012300028BF20F8022D48BF00F8012D30BC7047B0
:10124000C91818BF00F8012DCB0728BF00F8012DE1
:10125000704710F1080141605FF0FF31816010F1CB
:101260000801C16010F108010161002101607047AF
:1012700000210161704742684A6093688B609368FF
:1012800059609160086103685B1C0360704710B48B
:101290000B6813F1010F01D1026907E010F1080298
:1012A00054682468A34201D35268F9E754684C603B
:1012B0004C68A1608A60516008610468641C046025
:1012C00010BC7047010008698A684B689A604A68D8
:1012D0008B685A6042688A4201D18A684260002263
:1012E0000A610268521E026000687047001F5FF0CA
:1012F00080730360001F4B085B000360001F0FF248
:101300001503036014380260001F7FF002030360BE
:10131000203870477348006810F1010F07D0202073
:1013200080F31188BFF34F8FBFF36F8FFEE720204C
:1013300080F31188BFF34F8FBFF36F8FFEE7E0B5E7
:1013400069480168694A914207D1202080F31188D9
:10135000BFF34F8FBFF36F8FFEE700686449884289
:1013600007D1202080F31188BFF34F8FBFF36F8F19
:10137000FEE7604801780191FF21017001788DF846
:1013800000109DF8001011F020015B4A11705B49BC
:1013900007220A609DF80020120608D50A68521E2E
:1013A0000A609DF8002052008DF80020F2E70A68DC
:1013B000D2F10702042A07D0202181F31188BFF35C
:1013C0004F8FBFF36F8FFEE70A6812020A600A6848
:1013D00012F4E0620A60019901704948016851F411
:1013E00070010160016851F07041016000F092F8F5
:1013F00000203C49086000F041FB4248016851F080
:101400004041016000F02AFB00200EBD202080F347
:101410001188BFF34F8FBFF36F8F32490A68521C98
:101420000A60096801290AD137490968090606D006
:1014300080F31188BFF34F8FBFF36F8FFEE77047C4
:1014400028490868002807D1202080F31188BFF3BD
:101450004F8FBFF36F8FFEE70868401E0860086873
:10146000002802D1002080F31188704780B5202029
:1014700080F31188BFF34F8FBFF36F8FFFF7AEF983
:10148000002803D05FF080501F490860002080F3DF
:10149000118801BDEFF30580102811D31B4A126893
:1014A000125C11000A00144B1B78D2B29A4207D288
:1014B000202282F31188BFF34F8FBFF36F8FFEE7B7
:1014C0000E4A1268124B1B6813F4E0639A4207D26B
:1014D000202282F31188BFF34F8FBFF36F8FFEE797
:1014E000704700000800002000ED00E071C20F41CD
:1014F00070C20F4100E400E0732A0020E8280020B9
:1015000020ED00E034EF00E004ED00E07879000029
:101510000CED00E00848002101600021074A11603D
:10152000074909684FF47A72B1FBF2F1491E054A86
:10153000116007210160704710E000E018E000E052
:101540000C00002014E000E01CB5002400F014FAA8
:10155000DFF86C04006800280DD0DFF86804019003
:10156000042000900023B422DFF85C140FF20D1069
:10157000FEF74EFF0400002C07D1202080F31188D5
:10158000BFF34F8FBFF36F8FFEE7200016BD2DE92D
:10159000FF4704000D0016001F00DDF830805FF0EB
:1015A0000009002C07D1202080F31188BFF34F8F52
:1015B000BFF36F8FFEE7DFF808A4DAF80000002819
:1015C00022D0009501960294062D15DAFFF716FB3E
:1015D000022808D1002342466946DAF8000000F0EC
:1015E000EBFA814610E0002300226946DAF8000099
:1015F00000F0E2FA814607E000233A006946DAF893
:10160000000000F0ACFB8146484604B0BDE8F0871E
:10161000F8B505000E00DFF8B4030068C068C768BD
:10162000381DFFF74FFE97F8280040071CD52B0008
:101630003200B9694919380000F08FF8002819D034
:101640000020009000232A0000213800FFF79FFFB0
:101650000400002C07D1202080F31188BFF34F8FA6
:10166000BFF36F8FFEE705E097F8280010F0FE004B
:1016700087F828003800396A8847F1BD38B504007A
:10168000684600F042F805000099280000F003F8D1
:1016900000F08CF8F4E77CB505000C00FFF722F8A9
:1016A000684600F046F80600009800282AD1002C71
:1016B00008D1AE4206D3FFF71BF831002800FFF730
:1016C000A7FF21E0002C08D0DFF8040300680068C1
:1016D000002801D1012400E000242200A91BDFF82A
:1016E000E002006800F034FDFFF702F800280BD19B
:1016F0005FF08050DFF8DC120860BFF34F8FBFF35C
:101700006F8F01E0FEF7F4FF73BD0100DFF8BC222C
:1017100010680068002801D1012000E00020086066
:101720000868002803D11068C068006800E0002045
:10173000704770B50400FFF74DF80500DFF89862B8
:101740003068854204D200F0D0F80120206001E02A
:10175000002020603560280070BD2DE9F0410400B4
:101760000D0016001F005FF0000865602461AE42A6
:101770000DD3F01BA169884202D30120804612E0FC
:10178000211DDFF84C020068FFF781FD0BE0BE422F
:1017900004D2BD4202D30120804604E0211D8B48C3
:1017A0000068FFF774FD4046BDE8F081F8B586B0EB
:1017B000002201A98248006800F041FB002800F0E7
:1017C0009280019800280ED502AD002D07D120206F
:1017D00080F31188BFF34F8FBFF36F8FFEE7A968C7
:1017E00068682A68904701980028E1D403980600A9
:1017F0007069002802D0301DFFF764FD05A8FFF7CF
:1018000098FF0700019800280ED002280CD00BD3B7
:1018100004283DD035D3062806D054D3082830D02C
:1018200002D3092834D05DE096F8280050F001007A
:1018300086F82800029B3A000299B06941183000EE
:10184000FFF78BFF00281BD03000316A884796F8DD
:101850002800400714D5002000900023029AB069A8
:10186000821800213000FFF792FE0400002C07D1FF
:10187000202080F31188BFF34F8FBFF36F8FFEE7F7
:1018800096E796F8280010F0FE0086F828008FE70B
:1018900096F8280050F0010086F828000298B06100
:1018A000B069002807D1202080F31188BFF34F8F43
:1018B000BFF36F8FFEE73B003A00B169C9193000F2
:1018C000FFF74BFF74E796F82800800703D4300039
:1018D000FFF7E2FB05E096F8280010F0FE0086F81E
:1018E000280065E764E707B0F0BD2DE9FC41DFF8AB
:1018F000DC80D8F800000068002834D0D8F8000058
:10190000C06800680500D8F80000C068C06807001B
:10191000381DFFF7D7FC3800396A884797F8280048
:101920004007E4D5B86940190600B54207D27E6089
:101930003F61391DD8F80000FFF7A9FCD7E7002068
:10194000009000232A0000213800FFF720FE040049
:10195000002C07D1202080F31188BFF34F8FBFF3F5
:101960006F8FFEE7C3E7D8F8000019490A68C8F886
:1019700000200860BDE8F38170B5FFF747FD104C0B
:101980002068002818D1154D2800FFF762FC144E7E
:101990003000FFF75EFC0D4805600D480660002230
:1019A00010210A2000F0C2F820602068002803D02F
:1019B0000C49206800F0B7FBFFF742FD70BD000046
:1019C000602A0020642A00200C780000582A002099
:1019D0005C2A002004ED00E0682A0020302A002064
:1019E000442A002014780000EFF30980BFF36F8FC2
:1019F000264B1A681EF0100F08BF20ED108A20E950
:101A0000F04F106009B44FF0200080F31188BFF34D
:101A10004F8FBFF36F8FFEF75AFF4FF0000080F338
:101A2000118809BC19680868B0E8F04F1EF0100F63
:101A300008BFB0EC108A80F30988BFF36F8F70473E
:101A4000124B19680868B0E8F04F80F30988BFF3BB
:101A50006F8F4FF0000080F3118870470C480068CA
:101A6000006880F308884FF0000080F3148862B6A5
:101A700061B6BFF34F8FBFF36F8F00DFDFF8140045
:101A8000016841F470010160704700002C290020BA
:101A900008ED00E088ED00E070B506000C003500B0
:101AA000002D07D1202080F31188BFF34F8FBFF3A3
:101AB0006F8FFEE7FFF7AAFC2968EA6B286C4243A8
:101AC00001EB0200A8600020A8632868686029680C
:101AD000EA6B521E286C424301EB0200E8605FF0A3
:101AE000FF3085F8440085F84500002C12D12869A4
:101AF000002817D015F11000FEF766FF002811D05E
:101B00005FF08050DFF8A0140860BFF34F8FBFF381
:101B10006F8F07E015F11000FFF79BFB15F1240014
:101B2000FFF797FBFFF78CFC012070BD2DE9F84310
:101B300004000D001700002C07D1202080F311882D
:101B4000BFF34F8FBFF36F8FFEE7002D02D15FF021
:101B5000000901E005FB04F919F15000FFF70CFA48
:101B60000600002E0AD030005030804600963B0020
:101B7000DBB242462900200000F003F83000BDE847
:101B8000F2832DE9F04105000C0016001F00DDF87E
:101B90001880002C02D1C8F8008001E0C8F800606D
:101BA000C8F83C50C8F8404001214046FFF774FF98
:101BB00088F84C70BDE8F0812DE9F74380460D00B0
:101BC000994600244646002E07D1202080F3118834
:101BD000BFF34F8FBFF36F8FFEE7002D02D1306C44
:101BE000002801D1012000E00020C0B2002807D168
:101BF000202080F31188BFF34F8FBFF36F8FFEE774
:101C0000B9F1020F02D1F06B012801D1012000E0EF
:101C10000020C0B2002807D1202080F31188BFF334
:101C20004F8FBFF36F8FFEE7FEF7E8FF002802D16A
:101C30000298002801D1012000E00020C0B2002855
:101C400007D1202080F31188BFF34F8FBFF36F8F30
:101C5000FEE7FFF7DBFBB06BF16B884202D3B9F113
:101C6000020F27D14A462900300000F09FF90700F3
:101C7000706A00280FD016F12400FEF7A5FE002898
:101C800014D05FF08050DFF820130860BFF34F8F4F
:101C9000BFF36F8F0AE0002F08D05FF08050DFF8AD
:101CA00008130860BFF34F8FBFF36F8FFFF7C8FBB8
:101CB000012052E00298002803D1FFF7C1FB002069
:101CC0004BE0002C04D16846FEF7C2FE0120040060
:101CD000FFF7B6FBFEF706FDFFF798FB96F9440009
:101CE00010F1010F02D1002086F8440096F945005A
:101CF00010F1010F02D1002086F84500FFF7A0FB8C
:101D000002A96846FEF7B2FE002820D1300000F09C
:101D1000FBF9002815D0029916F11000FEF70DFE10
:101D2000300000F0ACF9FEF7E3FC002891D15FF041
:101D30008050DFF874120860BFF34F8FBFF36F8FCE
:101D400087E7300000F09BF9FEF7D2FC81E7300016
:101D500000F095F9FEF7CCFC0020BDE8FE832DE9EC
:101D6000F04707000C00150098463E00002E07D1F2
:101D7000202080F31188BFF34F8FBFF36F8FFEE7F2
:101D8000002C02D1306C002801D1012000E000209D
:101D9000C0B2002807D1202080F31188BFF34F8FF5
:101DA000BFF36F8FFEE7B8F1020F02D1F06B01288D
:101DB00001D1012000E00020C0B2002807D120207E
:101DC00080F31188BFF34F8FBFF36F8FFEE7FFF7EC
:101DD00061FBEFF31189202080F31188BFF34F8F4F
:101DE000BFF36F8FB06BF16B884202D3B8F1020F73
:101DF00020D196F945A042462100300000F0D6F8E7
:101E000050465FF0FF3140B288420DD1706A002821
:101E10000ED016F12400FEF7D7FD002808D0002DC3
:101E200006D00120286003E01AF1010086F8450081
:101E3000012000E0002089F31188BDE8F0872DE93A
:101E4000F64182B080460E0000244746002F07D19D
:101E5000202080F31188BFF34F8FBFF36F8FFEE711
:101E6000002E02D1386C002801D1012000E00020B2
:101E7000C0B2002807D1202080F31188BFF34F8F14
:101E8000BFF36F8FFEE7FEF7B9FE002802D103987B
:101E9000002801D1012000E00020C0B2002807D1B5
:101EA000202080F31188BFF34F8FBFF36F8FFEE7C1
:101EB000FFF7ACFABD6B002D1BD03100380000F0ED
:101EC000C3F8681EB863386900280ED017F11000F7
:101ED000FEF77AFD002808D05FF08050DFF8C810C8
:101EE0000860BFF34F8FBFF36F8FFFF7A9FA012090
:101EF00057E00398002803D1FFF7A2FA002050E032
:101F0000002C04D16846FEF7A3FD01200400FFF772
:101F100097FAFEF7E7FBFFF779FA97F9440010F11B
:101F2000010F02D1002087F8440097F9450010F115
:101F3000010F02D1002087F84500FFF781FA03A9BD
:101F40006846FEF793FD002820D1380000F0CEF857
:101F5000002815D0039917F12400FEF7EEFC380095
:101F600000F08DF8FEF7C4FB0028A1D15FF080508F
:101F7000DFF834100860BFF34F8FBFF36F8F97E720
:101F8000380000F07CF8FEF7B3FB91E7380000F072
:101F900076F8FEF7ADFB380000F0A8F8002887D0EF
:101FA000002004B0BDE8F08104ED00E02DE9F84F19
:101FB00006000F0014005FF00008B56B306C0028BD
:101FC00009D1306800283AD1B068FEF72BFE804670
:101FD0000020B06033E0002C14D1D6F84090BA460F
:101FE000D6F804B04A465146584600F0D7F8706813
:101FF000316C084470607068B16888421FD33068E3
:1020000070601CE0D6F84090BA46D6F80CB04A464C
:102010005146584600F0C2F8F068316C4942084415
:10202000F060F0683168884204D2B068316C49428F
:102030000844F060022C02D1002D00D06D1E681CF7
:10204000B0634046BDE8F28F2DE9F04104000D0079
:10205000206C002811D0E068216C0844E060E06842
:10206000A168884201D32068E060266CE768A84632
:1020700032003900404600F091F8BDE8F081F8B533
:102080000400FFF7C3F994F94550280040B2012835
:102090000CDB606A002809D014F12400FEF794FCE0
:1020A000002801D0FEF729FD6D1EEEE75FF0FF3638
:1020B00084F84560FFF7C4F9FFF7A8F994F9447074
:1020C000380040B201280CDB2069002809D014F147
:1020D0001000FEF779FC002801D0FEF70EFD7F1EF0
:1020E000EEE784F84460FFF7ABF9F1BD38B50400C2
:1020F000FFF78CF9A06B002801D1012500E0002535
:10210000FFF79EF9280032BD38B50400FFF77EF9CD
:10211000A06BE16B884201D1012500E00025FFF7AB
:102120008FF9280032BD10B40023082B0CD2074CC5
:1021300054F83320002A05D144F8331004EBC302CD
:10214000506001E05B1CF0E710BC7047EC280020F9
:10215000F8B504000D0016002700FFF757F997F9AE
:10216000440010F1010F02D1002087F8440097F9D4
:10217000450010F1010F02D1002087F84500FFF75C
:102180005FF9B86B002805D13200290017F124004F
:10219000FEF7F8FB3800FFF772FFF1BD62B38B0763
:1021A00008D0521E11F8013B00F8013B00F02480DA
:1021B0008B07F6D1830740F0208000BF103A07D389
:1021C00030B4B1E83810103AA0E83810F9D230BC79
:1021D000530724BFB1E80810A0E8081044BF51F825
:1021E000043B40F8043BD20724BF31F8022B20F80F
:1021F000022B44BF0B7803707047121F17D35B008C
:1022000009D151F8043B20F8023B1B0C121F20F8A7
:10221000023BF6D20BE051F8043B00F8013B1B0AED
:1022200020F8023B1B0C121F00F8013BF3D238BF11
:10223000121D521E24BF11F8013B00F8013BF8D8D3
:10224000704730B4002513E050F8042BD30744BF87
:10225000A9F101039A18091F042942F8045BFAD274
:1022600013468C0744BF15809B1CC90748BF1D70CF
:1022700050F8041B0029E7D130BC7047DFF86C1917
:1022800011EB10410A68012383401A430A6070472A
:1022900038B505000024002C07D1DFF8540950F8A8
:1022A0002400A84201D0641CF5E7002C08D0372296
:1022B000DFF84019DFF8400900F0B0FCAFF3008010
:1022C000200032BDF8B505000E001400002C08D126
:1022D0004922DFF82019DFF8240900F09FFCAFF352
:1022E00000806079022805D13000C0B2002801D1F9
:1022F0000120B3E0607A012805D13000C0B2002887
:1023000001D10120AAE02800FFF7C2FFDFF8F01892
:10231000000108443100C9B250F82100FFF7AEFFB8
:10232000B5F88E0150F00F00A5F88E016021300045
:10233000C0B248432844828812F4E652607910F013
:102340000300E37ADB0013F03803184323791B0200
:1023500013F440731843237850EAC330637850EA8B
:102360008330637A13F0040318430243E0790028B2
:1023700003D002280ED003D316E052F4005213E02B
:10238000B5F88831012716F10C008740BB43A5F84A
:10239000883109E0B5F88831012716F10C00874033
:1023A0003B43A5F88831FFE73000C0B248432844DA
:1023B00082803000C0B248432844C38840F68B7006
:1023C0000340A079000110F07000A77A50EA0730AE
:1023D0000343207A002805D002280CD005D3032817
:1023E0000FD013E053F0040310E053F400634FF6F2
:1023F000FF3003400AE04FF2FF70034053F4806364
:1024000004E053F4006353F48063FFE73000C0B28C
:1024100048432844C380B5F89001000605D0B5F8BC
:10242000900110F47F40A5F89001A278120212F4F6
:10243000E062E0780243A5F89021E07A00280CD110
:102440003000C0B2484328443200D2B201FB02F14E
:102450002944898851F0400181800020F2BDF8B5FF
:102460000400002C08D1D522DFF88817DFF88C078C
:1024700000F0D4FBAFF300800C25002627003200CB
:1024800029003800FEF7B2FE0020207000206070A6
:10249000002060720020A0700020E07000206071B9
:1024A0000020A071002020710020E0720020A072A6
:1024B000002020720020E071F1BD2DE9FE4F0500E3
:1024C0000E001400002C09D140F21112DFF824177D
:1024D000DFF8300700F0A2FBAFF300800D98002872
:1024E00009D14FF48972DFF80C17DFF81C0700F0F0
:1024F00095FBAFF300809DF80800002809D140F259
:102500001312DFF8F016DFF8040700F087FBAFF3D3
:1025100000800E98002809D14FF48A72DFF8D41693
:10252000DFF8EC0600F07AFBAFF300805FF0000A02
:1025300000210022002300279DF80800032801DB6A
:102540000120E0E15FF060085FF001090E98B446F9
:102550005FFA8CFC08FB0CFCAC44BCF806C0CCF366
:10256000021C19FA0CFCB0FBFCF000900098DDF89E
:1025700034C0B0FBFCFC5FF0000E70469DF808A074
:10258000C0B2504580F0BE81E2461FFA8AFA6078F8
:1025900000FB0AFA64209AFBF0F001009DF830007D
:1025A000002807D0022800F0C8805FD3032800F07D
:1025B000128151E1604680B2400802003000C0B292
:1025C00008FB00F0284492460FFA8AFADAF1000A72
:1025D000A0F802A03000C0B208FB00F028445FF071
:1025E000000AA0F80AA03000C0B208FB00F028449E
:1025F000C281207801281CD13000C0B208FB00F055
:1026000028448A461FFA8AFA7FF0010B9AFBFBFAEC
:10261000A0F812A03000C0B208FB00F028448A469F
:102620001FFA8AFA5FF0020B9AFBFBFAA0F816A0D9
:102630001BE03000C0B208FB00F028448A461FFAB5
:102640008AFA7FF0010B9AFBFBFAA0F81AA030007F
:10265000C0B208FB00F028448A461FFA8AFA5FF0ED
:10266000020B9AFBFBFAA0F81EA0F5E03000C0B206
:1026700008FB00F028445FF0000AA0F802A0300038
:10268000C0B208FB00F02844E2461FFA8AFA5FF065
:10269000020B9AFBFBFAA0F80AA03000C0B208FBBC
:1026A00000F02844A0F80EC02078012822D1300084
:1026B000C0B208FB00F005EB000AE3461FFA8BFBF3
:1026C000080080B2BBEB000B02209BFBF0F0AAF8E5
:1026D00012003000C0B208FB00F028448A461FFAFE
:1026E0008AFA1AFA8CFA5FF0020B9AFBFBFAA0F84E
:1026F00016A021E03000C0B208FB00F005EB000A94
:10270000E3461FFA8BFB080080B2BBEB000B0220F4
:102710009BFBF0F0AAF81A003000C0B208FB00F0F2
:1027200028448A461FFA8AFA1AFA8CFA5FF0020BDA
:102730009AFBFBFAA0F81EA08EE0604680B240082B
:1027400002003000C0B208FB00F0284492460FFAA5
:102750008AFADAF1000AA0F802A03000C0B208FB41
:1027600000F028445FF0000AA0F80AA03000C0B2D0
:1027700008FB00F02844C2812078012815D13000E0
:10278000C0B208FB00F0284492460FFA8AFADAF148
:10279000000AA0F812A03000C0B208FB00F02844E4
:1027A000B1EB020AA0F816A014E03000C0B208FB9A
:1027B00000F0284492460FFA8AFADAF1000AA0F8EB
:1027C0001AA03000C0B208FB00F02844B1EB020AA6
:1027D000A0F81EA040E03000C0B208FB00F0284482
:1027E0005FF0000AA0F802A03000C0B208FB00F0C1
:1027F0002844E2461FFA8AFA5FF0020B9AFBFBFAC2
:10280000A0F80AA03000C0B208FB00F02844A0F8ED
:102810000EC0207801280FD13000C0B208FB00F0B4
:1028200028445FF0000AA0F812A03000C0B208FBF4
:1028300000F02844C1820EE03000C0B208FB00F076
:1028400028445FF0000AA0F81AA03000C0B208FBCC
:1028500000F02844C183FFE7207801280DD10A2029
:102860000300082007003000C0B208FB00F0284435
:10287000B4F804A0A0F830A00CE009200300042064
:1028800007003000C0B208FB00F02844B4F804A0F0
:10289000A0F832A0A078002813D13000C0B208FB05
:1028A00000F005EB000A3000C0B208FB00F028443D
:1028B000B0F822B019FA03F03BEA000BAAF822B0F4
:1028C00012E03000C0B208FB00F005EB000A300057
:1028D000C0B208FB00F02844B0F822B019FA03F0A7
:1028E00050EA0B0BAAF822B0B5F8800116EB070AE4
:1028F00019FA0AFA5AEA0000A5F88001A41D1EF18F
:10290000010E3AE60020BDE8FE8F2DE9F8430500F0
:102910000E0017009846089C2000C0B2652809DB0D
:102920004FF4E072DFF8CC12DFF8E80200F076F93D
:10293000AFF300803800C0B2022809DB40F2C112B8
:10294000DFF8B012DFF8D00200F068F9AFF30080D2
:102950000021002200234046C0B2002807D00228F0
:1029600000F0BD805BD3032800F003813BE15FF002
:10297000600C3000C0B20CFB00F02844B0F90E002F
:1029800003009BB2580001008E461FFA8EFE200005
:10299000C0B200FB0EFE64209EFBF0F00200380087
:1029A000C0B201281DD13000C0B20CFB00F0284499
:1029B00096461FFA8EFE7FF001099EFBF9FEA0F8F5
:1029C00012E03000C0B20CFB00FC05EB0C0094469A
:1029D0001FFA8CFC5FF0020E9CFBFEFCA0F816C0F8
:1029E0001CE03000C0B20CFB00F0284496461FFAF1
:1029F0008EFE7FF001099EFBF9FEA0F81AE0300080
:102A0000C0B20CFB00FC05EB0C0094461FFA8CFCDA
:102A10005FF0020E9CFBFEFCA0F81EC0E3E05FF03E
:102A2000600C3000C0B20CFB00F02844C0890100EB
:102A30008E461FFA8EFE2000C0B200FB0EFE642000
:102A40009EFBF0F002003800C0B2012823D1300014
:102A5000C0B20CFB00F005EB000E89461FFA89F9A5
:102A6000100080B2B9EB0009022099FBF0F0AEF83B
:102A700012003000C0B20CFB00FC05EB0C009446C9
:102A80001FFA8CFC1CFA81FC5FF0020E9CFBFEFC22
:102A9000A0F816C022E03000C0B20CFB00F005EB3D
:102AA000000E89461FFA89F9100080B2B9EB0009BF
:102AB000022099FBF0F0AEF81A003000C0B20CFB17
:102AC00000FC05EB0C0094461FFA8CFC1CFA81FC00
:102AD0005FF0020E9CFBFEFCA0F81EC083E05FF0DE
:102AE000600C3000C0B20CFB00F02844B0F90E00BE
:102AF00003009BB2580001008E461FFA8EFE200094
:102B0000C0B200FB0EFE64209EFBF0F00200380015
:102B1000C0B2012816D13000C0B20CFB00F028442E
:102B20009E460FFA8EFEDEF1000EA0F812E0300095
:102B3000C0B20CFB00FC05EB0C00B2EB030CA0F8E0
:102B400016C015E03000C0B20CFB00F028449E46D1
:102B50000FFA8EFEDEF1000EA0F81AE03000C0B2CF
:102B60000CFB00FC05EB0C00B2EB030CA0F81EC044
:102B700039E05FF0600C3000C0B20CFB00F028447C
:102B8000C08901008E461FFA8EFE2000C0B200FBF5
:102B90000EFE64209EFBF0F002003800C0B2012857
:102BA00010D13000C0B20CFB00F028445FF0000EE2
:102BB000A0F812E03000C0B20CFB00FC05EB0C00EA
:102BC000C2820FE03000C0B20CFB00F028445FF07E
:102BD000000EA0F81AE03000C0B20CFB00FC05EBC0
:102BE0000C00C283FFE7BDE8F183000000700440E1
:102BF00064790000EC6D000008710000AC77000003
:102C00006076000014770000207700002C77000029
:102C100038770000907400005076000070B5040012
:102C20000D00160033002A002100024800F0C0F811
:102C300000BEFDE7AC71000070B505000C0043F26A
:102C40002156002D07D140F2D1126A496A48FFF798
:102C5000E5FFAFF30080002C07D14FF4E97265491E
:102C60006648FFF7DBFFAFF30080220029006448CD
:102C700000F0CCF9002801D05FF0FF34200070BDD7
:102C80002DE9F04104000D0016001F0000205FF048
:102C90000008B84511DA2868401C802805D3296847
:102CA0002000FFF7C9FF0020286028682654286804
:102CB000401C286018F10108EBE7BDE8F0812DE920
:102CC000F14F88B00E001700984643F22155684630
:102CD0004C491022FFF772FACDF8008001969DF85A
:102CE00020008DF80A008DF818703800C0B2012855
:102CF00018D1684607905FF01C0A5FF0000BDFF800
:102D000008914C465A4651462000FEF76FFAC9F822
:102D1000109004A9D9F8100000F0E9F80400002C84
:102D200014D11BE03800C0B2022801D128003CE0D9
:102D30003800C0B2032801D1280036E03800C0B204
:102D4000042801D1280030E028002EE04FF433722F
:102D500028492E48FFF762FFAFF3008019F11401F4
:102D6000D9F8100000F0F8F80500002D07D040F267
:102D7000D62220492548FFF751FFAFF3008019F113
:102D80001801D9F8100000F012F90400002C07D047
:102D900040F2E12217491D48FFF740FFAFF30080E2
:102DA000D9F810001A490860002009B0BDE8F08F7A
:102DB0000EB42DE9F841A0B00400002500266846B5
:102DC000802100F03DF912480068002801D1002060
:102DD0000BE027AF0F4B6A463900200000F093F953
:102DE000804641466846FFF727FF21B0BDE8F00165
:102DF0005DF810FB38660000A4770000F076000054
:102E00003400002040760000200000202C720000DA
:102E10003C000020812C000070B505000C0016005D
:102E2000002C01D100200BE0012D04D0022D02D096
:102E30005FF0FF3004E031002000FFF7FDFE3000BE
:102E400070BD00002DE9F04105000C0016001F00C8
:102E500043F221508046002C0BD0297B012907D159
:102E60003A00310015F1080000F0ADFA804600E0AC
:102E70008046404600B2BDE8F0812DE9F0410700F0
:102E80000E001500002F09D140F20632DFF8901134
:102E9000DFF89001FFF7C2FEAFF30080002E07D1EC
:102EA00040F207325E496048FFF7B8FEAFF300809A
:102EB000002D07D14FF4427259495C48FFF7AEFE2E
:102EC000AFF30080B846D8F80040002C07D140F29C
:102ED0000D3253495648FFF7A1FEAFF300802B0097
:102EE000320041462000FFF7ADFFBDE8F0812DE93B
:102EF000F04704000D0043F22156002D07D140F2A7
:102F0000293247494C48FFF789FEAFF30080002C77
:102F100007D140F22E3242494848FFF77FFEAFF317
:102F2000008027005FF010085FF00009BA464A46AB
:102F300041465046FEF75AF9287A3873287A012814
:102F400006D1E96817F1080000F006FA0600FFE76D
:102F5000300000B2BDE8F0872DE9F04705000C0015
:102F6000002D07D140F2DB322D493448FFF756FEE1
:102F7000AFF30080002C07D14FF47772284929481D
:102F8000FFF74CFEAFF300802E0027005FF004082F
:102F90005FF00009A2464A4641465046FEF726F930
:102FA0007068401C70603E600020BDE8F0872DE92D
:102FB000F04705000C00002D07D140F20C421849E3
:102FC0001E48FFF72BFEAFF30080002C07D140F224
:102FD0000D4213491748FFF721FEAFF300802E0082
:102FE00027003068002802D043F222500CE05FF046
:102FF00004085FF00009A2464A4641465046FEF7E3
:10300000F5F837603E600020BDE8F08770B5040039
:103010000D001600320029002000FFF72EFF70BDC2
:10302000D466000068770000D4770000DC770000E9
:10303000E477000074770000EC77000090760000E1
:10304000002200F0F3B92DE9F04F84460D00140082
:10305000099E0020E2465FF0000B8AF800B01AF1EA
:10306000010A002C24D0D5F800B05946002905D11A
:103070005FF0300B8AF800B0401C42E0002940D0DD
:1030800091FBF3FBDE4603FB1E1BBBF1000F05D5D6
:103090005F467FEA070919F1310902E0D94619F1C3
:1030A000300971468AF800901AF1010A401CE5E7E0
:1030B000D5F800B05A46002A05D15FF0300B8AF8E7
:1030C00000B0401C1DE0002A1BD0B2FBF3FBD84629
:1030D00003FB182BBBF10A0F02D25F46303709E021
:1030E0003700FFB2002F01D0412700E061270A3FDF
:1030F00017EB0B0742468AF800701AF1010A401CD0
:10310000E1E7BDE8F08F2DE9F54F91B08B461F0048
:1031100000265FF000080020029000208DF80400D7
:1031200000200490DDF844A09AF800000500002D6E
:1031300000F00D81252D07D0012328000200D2B216
:1031400002A91298B847FFE001208DF80500002081
:103150008146002003900398002813D11AF1010A38
:103160009AF800000500302D07DB3A2D05DA0A2118
:10317000B5F1300001FB0909EDE7BAF1010A0120C0
:103180000390E8E7062005901AF1010108782E283F
:1031900019D100200590002003900398002813D136
:1031A000491C08780500302D09DB3A2D07DA059A0D
:1031B0000A23B5F1300003FB02020592EDE7491E38
:1031C00001200390E9E7491E11F1010A9AF8000075
:1031D0000500642D11D0692D0FD0662D0DD0462D20
:1031E0000BD0782D09D0582D07D06F2D05D0622D2A
:1031F00003D0702D01D0752D72D1642D01D0692DB1
:1032000011D1DBF800001BF1040B06909DF80500BE
:1032100000900A23012206A908A8FFF714FF8046A0
:1032200008A840440600582D01D0782D16D1782DDD
:1032300002D100208DF80500DBF800001BF1040B23
:1032400004909DF8050000901023002204A908A80E
:10325000FFF7F9FE804608A8404406006F2D05D010
:10326000622D03D0702D01D0752D27D1DBF8000021
:103270001BF1040B04906F2D03D108208DF804007E
:103280000EE0622D03D102208DF8040008E0702DBD
:1032900003D110208DF8040002E00A208DF804000C
:1032A0009DF8050000909DF80430002204A908A8AC
:1032B000FFF7C9FE804608A840440600B9EB0803A2
:1032C000202202A91298B847002E3DD0307800285D
:1032D0003AD00123327802A91298B847761EF5E752
:1032E000632D0DD1DBF800001BF1040BC0B2079079
:1032F000012307980200D2B202A91298B84723E02E
:10330000732D1AD1DBF800001BF1040B0400002C14
:103310001AD0200000F0A4F88046B9EB0803202260
:1033200002A91298B847207800280DD001232278EE
:1033300002A91298B847641CF5E70123280002008F
:10334000D2B202A91298B8471AF1010AECE6029823
:1033500013B0BDE8F08F0000F8B584B004000D0094
:10336000002D06D18B222C492C48FFF757FCAFF3D8
:103370000080002C06D18C2227492948FFF74EFCFB
:10338000AFF300802E00270070680190307A8DF82E
:103390000800707A8DF80900F07A8DF80A00307B09
:1033A0008DF80B0030680090B07A8DF80C006946FB
:1033B000380000F079F8002802D043F2215000E0F4
:1033C000002005B0F0BDF8B506000D001400002E79
:1033D00007D140F20B1210491148FFF71FFCAFF361
:1033E0000080002D07D14FF486720B490D48FFF77E
:1033F00015FCAFF30080002C07D140F20D120649F6
:103400000948FFF70BFCAFF30080370022002900CA
:10341000380000F0BFF8F2BD70670000A076000031
:10342000B0760000F4770000FC77000000B500BF24
:10343000130096469446103928BFA0E80C50FAD8DD
:103440005FEA417C28BF0CC048BF40F8042BC90785
:1034500028BF20F8022B48BF00F8012B00BD010057
:1034600000F10103810704D010F8011B820781B12C
:10347000FAD10268A2F10131914311F0803104BF09
:1034800050F8042FF6E709BAB1FA81F100EBD10048
:10349000401CC01A7047FEE70100002901D100203E
:1034A00001E042F6AF7070477FB504000D00002CBC
:1034B00006D1DE224E494F48FFF7B0FBAFF3008044
:1034C000002D06D1DF224A494B48FFF7A7FBAFF397
:1034D0000080287B022806D3E02245494748FFF7B1
:1034E0009DFBAFF30080464E287B56F82000002855
:1034F00006D1E1223E494348FFF790FBAFF300803D
:10350000684600F08DF968680090287A012803D198
:1035100002208DF8040009E0287A022803D1032054
:103520008DF8040002E000208DF80400687A01287C
:1035300003D101208DF8050002E000208DF8050080
:10354000A87A002801D0012000E000208DF80C00AE
:10355000E87A002801D0012000E000208DF80B005F
:1035600000208DF8060001208DF807002A686946C2
:10357000287B56F8200000F070F80600002E03D0DB
:103580003000FFF789FF03E02100287B087000204E
:1035900004B070BDF8B506000D001400002E07D170
:1035A0004FF4A87212491348FFF738FBAFF30080BD
:1035B000002D07D140F251120D491348FFF72EFBA1
:1035C000AFF30080002C07D14FF4A97208490F48CF
:1035D000FFF724FBAFF300803700220029000848E2
:1035E0003B7850F8230000F054F90020F2BD0000B1
:1035F0000C6800001C7800002478000008700000AF
:103600003C780000A47200002C78000034780000A0
:10361000DFF8001311EB10410A68012383401A43BD
:103620000A60704770B5040002260025B54207D233
:10363000DFF8E40250F82500A04201D06D1CF5E748
:10364000B54208D38D22DFF8D412DFF8D402FFF799
:10365000E5FAAFF30080280070BD2DE9F84F0500B2
:103660000C001600002C08D1D422DFF8B012DFF8CD
:10367000B402FFF7D3FAAFF300802068002808D126
:10368000D522DFF89812DFF8A002FFF7C7FAAFF3F0
:103690000080DFF89872BD4201D1082007E0DFF812
:1036A0009002854201D1012001E05FF0FF30A17955
:1036B000884208DAD722DFF86412DFF87802FFF7D1
:1036C000ADFAAFF30080BD4201D1082007E0DFF87A
:1036D0006002854201D1012001E05FF0FF30E17915
:1036E000884208DAD822DFF83412DFF84C02FFF7FC
:1036F00095FAAFF300800021002700202268120114
:10370000B6FBF2F8424692B2002A01D10121884666
:10371000002172002368B2FBF3F9424692B2B9EB82
:103720004219720043469BB25B0113FA89F3B2FB64
:10373000F3FA2268524504D2D4F800B0BAEB0B0B6E
:1037400003E0D4F800B0BBEB0A0B20686421B0FBA7
:10375000F1F103204143594502D240F2F5305DE0DA
:103760002800FFF75FFFDFF80C1251F82000FFF789
:103770004FFFE87810F0F300E870297811F0E001CD
:10378000404680B2000A0143297085F80180A97A79
:1037900011F0E00119F01F000143A972A97811F09E
:1037A000E801A07A800010F004000143207900288D
:1037B00003D0207950F010000143A970287810F050
:1037C000DF006279520112F0200210432870A079C4
:1037D000E874E0796875287C50F088002874687C6B
:1037E00050F0C0006874207A002803D0687B50F045
:1037F00008006873607A002803D0687B50F00100ED
:103800006873EA78E07A002801D052F00802207B41
:10381000002801D052F00402EA700020BDE8F28FC7
:10382000F8B50400002C09D140F28B12DFF8EC103F
:10383000DFF8F000FFF7F2F9AFF300801025002663
:103840002700320029003800FDF7D0FC5FF4E1309A
:10385000206000202071002060710020A0710120F4
:10386000E07100202072002060720020A072002011
:10387000E07200202073F1BD01000879C0B24A79DE
:1038800050EA02200A7B50EA02408A7C50EA026039
:10389000704713005A1E002B06D003791B06FCD577
:1038A0000B78C371491CF4E77047F8B505000C00AC
:1038B0001700002C09D140F2EE22DFF86010DFF88B
:1038C000B800FFF7ABF9AFF300803800471E0028BF
:1038D0001ED0A87D002817D12800FFF7CDFF0600D5
:1038E000300702D540F2F13013E0700702D540F204
:1038F000F2300EE0B00702D540F2F33009E0F007F5
:10390000E7D54FF47D7004E0E8792070641CDCE7B3
:103910000020F2BD00700440C4770000CC6B0000B2
:1039200084730000B4770000A874000000A0064073
:1039300000B00640546C0000DC6C000080B50F48FD
:10394000016810480E4A12689047BFF34F8F01BDBF
:1039500080B5FFF7F3FFBFF34F8F01BD80B5074878
:1039600041680948064A12689047BFF34F8F01BD6E
:1039700000000000CC770000BC770000A40000200D
:10398000AC00002000A0064000B0064080B5FFF764
:10399000E5FFBFF34F8F01BDDFF86C1611EB10414F
:1039A0000A68012383401A430A607047B0F88821EF
:1039B0000B00DBB21B0213F470631A43A0F88821DA
:1039C000704710B41300DBB2002B09D0B0F8883177
:1039D0000C00E4B214F00F042343A0F8883109E08E
:1039E000B0F888310C00E4B2240114F0F004234351
:1039F000A0F8883110BC704710B450F8213033F46F
:103A0000E0631400E4B2240214F4E064234340F8B9
:103A1000213010BC70470069C84010F001007047A9
:103A20001CB5DFF8E8050088ADF80000DFF8E00518
:103A3000FFF7B2FFDFF8DC45012201212000FFF78C
:103A4000DBFF012202212000FFF7D6FF0122032124
:103A50002000FFF7D1FFDFF8C0456A4601212000B2
:103A600000F012FB6A460221200000F00DFB6A46BE
:103A70000321200000F008FB03220121012000F0B7
:103A8000AFFB03220221012000F0AAFB0322032145
:103A9000012000F0A5FB13BD38B5DFF880450020FC
:103AA0002060DFF8745501212800FFF7B4FF0028DB
:103AB00003D0206850F00100206002212800FFF7A9
:103AC000AAFF002803D0206850F0020020600321E4
:103AD0002800FFF7A0FF002803D0206850F0040062
:103AE0002060206832BD38B584B0DFF8344520004E
:103AF00000F08AFC40F2011540F21D12290020005E
:103B000000F08DFC4FF48F722900200000F087FC3C
:103B100040F21F122900200000F081FC4FF4907247
:103B20002900200000F07BFC01A8FEF798FC012092
:103B30008DF8040001208DF80C0000208DF80B009A
:103B400001208DF8040000208DF80F00DFF8D44428
:103B500001AA00212000FEF7B5FB012803D1DFF800
:103B6000C804FFF725F900208DF8090000208DF822
:103B7000080001AA01212000FEF7A4FB012803D1BF
:103B8000DFF8A404FFF714F901AA02212000FEF7D0
:103B900099FB012803D1DFF89004FFF709F900F041
:103BA0003FF8002000900223012200212000FEF7B0
:103BB000ACFE002000900223002200212000FEF72E
:103BC000A4FE002000900223012201212000FEF724
:103BD0009CFE002000900223002201212000FEF71D
:103BE00094FE002000900223012202212000FEF713
:103BF0008CFE002000900223002202212000FEF70C
:103C000084FE012207212000FFF7DBFE07212000B0
:103C1000FFF7CCFEDFF81404FFF7CAF805B030BD9B
:103C2000F8B586B04FF47A74042000F00EFD05005C
:103C300040F28A2601208DF80C0003A80021817033
:103C400032214170868000208DF8120000208DF80E
:103C5000140032208DF81300ADF81660DFF8C4733D
:103C60000295019402200090022303AA002138004B
:103C7000FEF723FC0295019402200090022303AA80
:103C800001213800FEF719FC0295019402200090F2
:103C9000022303AA02213800FEF70FFC07B0F0BD93
:103CA00080B5DFF88C0390F90000002805D1DFF81B
:103CB00084030168D1F107010160DFF8780300682F
:103CC00001282CD032D3032822D01AD3052803D0C0
:103CD00009D306280ED029E0022000F042F9002086
:103CE00000F083F822E0002000F03BF9012000F012
:103CF0007CF81BE0012000F034F9012000F017F8F7
:103D000014E0022000F02DF9002000F010F80DE082
:103D1000002000F026F9012000F0C5F806E001209F
:103D200000F01FF9002000F0BEF8FFE701BD7CB5F0
:103D300004002000C0B2002829D1BA4D0020009014
:103D40000223002200212800FEF7DFFDBA4E308852
:103D5000C0B200900223012200212800FEF7D5FD09
:103D6000002000900223012201212800FEF7CDFD52
:103D70003088C0B200900223002201212800FEF703
:103D8000C4FD012203212800FFF71BFE2CE02000C8
:103D9000C0B2012828D1A34D0020009002230022A8
:103DA00000212800FEF7B1FDA34E3088C0B200907C
:103DB0000223012200212800FEF7A7FD0020009029
:103DC0000223012202212800FEF79FFD3088C0B2A5
:103DD00000900223002202212800FEF796FD012216
:103DE00005212800FFF7EDFD73BD7CB50400200020
:103DF000C0B2002829D18B4D002000900223002260
:103E000001212800FEF781FD8B4E3088C0B2009062
:103E10000223012201212800FEF777FD00200090F7
:103E20000223012200212800FEF76FFD3088C0B276
:103E300000900223002200212800FEF766FD0122E7
:103E400003212800FFF7BDFD2CE02000C0B20128AF
:103E500028D1744D00200090022300220121280067
:103E6000FEF753FD744E3088C0B200900223012249
:103E700001212800FEF749FD0020009002230122C5
:103E800002212800FEF741FD3088C0B200900223D5
:103E9000002202212800FEF738FD01220621280019
:103EA000FFF78FFD73BD7CB504002000C0B2002871
:103EB00029D15C4D0020009002230022022128001D
:103EC000FEF723FD5C4E3088C0B200900223012231
:103ED00002212800FEF719FD002000900223012294
:103EE00000212800FEF711FD3088C0B200900223A7
:103EF000002200212800FEF708FD012205212800EC
:103F0000FFF75FFD2CE02000C0B2012828D1454D0D
:103F1000002000900223002202212800FEF7F5FC79
:103F2000454E3088C0B200900223012202212800B1
:103F3000FEF7EBFC00200090022301220121280063
:103F4000FEF7E3FC3088C0B200900223002201217A
:103F50002800FEF7DAFC012206212800FFF731FDD8
:103F600073BD38B504002000C0B2002816D12D4D15
:103F7000002000900223012200212800FEF7C5FC4A
:103F8000002000900223002200212800FEF7BDFC43
:103F9000012201212800FFF714FD34E02000C0B207
:103FA000012816D11F4D002000900223012201217B
:103FB0002800FEF7AAFC0020009002230022012125
:103FC0002800FEF7A2FC012202212800FFF7F9FCDD
:103FD00019E02000C0B2022815D1124D0020009037
:103FE0000223012202212800FEF78FFC002000900E
:103FF0000223002202212800FEF787FC012204216F
:104000002800FFF7DEFC31BD00700440422E0000A6
:104010000A00381000A0044040F00F4018000020B3
:1040200000900540003003406873000008750000F0
:10403000722A0020140000201000002010B4012378
:104040001400E4B2002C03D113FA01F4846002E0FE
:1040500013FA01F4446010BC704738B50400002521
:10406000052D06D28E4850F82500A04201D06D1CC7
:10407000F6E7052D06D34E228A498B48FEF7CEFD82
:10408000AFF30080280032BDF8B505000E00140023
:10409000002C06D16F2283498448FEF7BFFDAFF3A1
:1040A000008001272078002805D1696917FA06F0F9
:1040B0008143696109E0627831002800FFF7BEFFA3
:1040C000696917FA06F001436961F1BD38B504006A
:1040D0000D002000FFF7C1FF75490200D2B251F870
:1040E0002210C1F8A05031BD30B4724C2568724B1B
:1040F00053F820301D4325601300DBB2012B0AD199
:104100006E4B53F82040646901258D402C4353F8D1
:1041100020305C610AE0694B53F820406569012456
:104120008C4035EA040453F820305C6130BC7047A1
:10413000F0B4604C2568604B53F820301D43256077
:104140005F4B53F820400D00EDB253F820600F0094
:10415000FFB256F8276036F4E06644F8256053F85D
:1041600020400D00EDB253F820300E00F6B253F8A7
:1041700026301600F6B2360216F4E066334344F8F1
:104180002530F0BC704730B44A4C25684A4B53F890
:1041900020301D4325601300DBB2002B0FD0484BAD
:1041A00053F820400D00EDB254F8254054F020049F
:1041B00053F820300D00EDB243F825400EE0404B9F
:1041C00053F820400D00EDB254F8254034F020049F
:1041D00053F820300D00EDB243F8254030BC704755
:1041E000F0B4344C2568344B53F820301D4325601F
:1041F0001300DBB2002B04D0022B30D0032B10D0E5
:104200004BE02F4B53F820400D00EDB253F8203017
:104210000E00F6B253F8263033F0020344F825308E
:104220003BE0274B53F820400D00EDB253F82060DF
:104230000F00FFB256F8276056F0020644F82560DA
:1042400053F820400D00EDB253F820300E00F6B2C6
:1042500053F8263053F0010344F825301DE0184B85
:1042600053F820400D00EDB253F820600F00FFB26C
:1042700056F8276056F0020644F8256053F82040AF
:104280000D00EDB253F820300E00F6B253F8263090
:104290005B085B0044F82530FFE7F0BC7047000086
:1042A00094750000446B0000CC700000087700009B
:1042B00080750000388004406C7500004475000073
:1042C0005875000010B504006078002806D0022858
:1042D0002AD016D304284DD039D35EE0002261687D
:1042E000C9B22078FFF77CFF00226168C9B220784C
:1042F000FFF749FF00226168C9B22078FFF7F4FE9A
:104300004BE002226168C9B22078FFF769FF002202
:104310006168C9B22078FFF736FF00226168C9B230
:104320002078FFF7E1FE38E003226168C9B2207807
:10433000FFF756FF00226168C9B22078FFF723FF1C
:1043400000226168C9B22078FFF7CEFE25E0032283
:104350006168C9B22078FFF743FF01226168C9B2E2
:104360002078FFF710FF01226168C9B22078FFF7BB
:10437000BBFE12E000226168C9B22078FFF730FF6F
:1043800000226168C9B22078FFF7FDFE0122616852
:10439000C9B22078FFF7A8FEFFE701226168C9B221
:1043A0002078FFF7C5FE10BD7CB504000D00160097
:1043B00020008DF800008DF8016001956846FFF738
:1043C00081FF2000C0B276BD264911EB10410A687A
:1043D000012383401A430A60704738B50500002462
:1043E000002C06D1204850F82400A84201D0641CBB
:1043F000F6E7002C06D040221C491D48FEF70EFCB3
:10440000AFF30080200032BD10B504002000FFF79C
:10441000E4FF184951F82000FFF7D6FF10BD70B433
:1044200013001BB2C3F3460310EB430413001BB28B
:10443000C3F3460310EB43031D88FF2612F001036C
:10444000DBB2DB009E40B5430E0036B206F0FF063D
:1044500012F00103DBB2DB009E403543258070BCC7
:10446000704700000070044068790000646D00002F
:10447000507000006C790000DFF8A8150A6860F33E
:1044800093420A607047037813F05F030A7813437E
:1044900003704A78920182707047027812F0F0023D
:1044A0000A430270704710B5DFF8EC44206800281A
:1044B00008D1DA22DFF8E414DFF87005FEF7AEFB6E
:1044C000AFF30080206810BD10B5FFF7ECFF0028A7
:1044D00024D0DFF8CC140978C1F3C202D040DFF851
:1044E00050150978C1F301131900C9B2002915D07C
:1044F0001100C9B20029052904D9891F04D0491E19
:1045000006D009E0400909E01421B0FBF1F005E014
:104510000C21B0FBF1F001E00021080010BDDFF834
:1045200084040078C00703D4DFF87C04006808E046
:10453000DFF878040068DFF8FC140978C1F3420161
:10454000C840704780B5DFF85C040078C0B2C0F3A3
:104550000010002802D1FFF7B7FF02E0DFF848049F
:10456000006802BD80B5FFF79EFF02BD010049F65D
:104570009800814201D2002006E0DFF8C0048142A9
:1045800001D2012000E00220C0B2704710B5DFF870
:1045900020040078000610D5DFF8FC4320680028CE
:1045A00009D14FF4A972DFF8F413DFF87C04FEF7A9
:1045B00035FBAFF30080206800E0002010BD10B58F
:1045C000DFF8EC030078000616D5DFF8CC4320684E
:1045D000002809D140F26512DFF8C013DFF8480463
:1045E000FEF71CFBAFF300802068DFF85414097855
:1045F000C9B28909C84000E0002010BD80B5DFF8CD
:1046000024040068800C10F00300002802D0032866
:104610000AD00CE0FFF7BAFFB0F5004F02D14FF41B
:10462000004000E0002003E04FF47A7000E000203A
:1046300002BD80B500F074F8DFF8FC130968C1F31F
:104640000361491CB0FBF1F002BDF8B50400DFF8CE
:10465000E863DFF83C0407683068000F401C4743FC
:104660002000C0B2002816D0022825D003282AD066
:10467000042818D005282FD006283FD0072840D07E
:1046800008282CD009282DD00A282ED00B282FD06E
:104690000E2830D038E000F043F83168090F491C8B
:1046A000B0FBF1F031E000F03BF83168C1F3036199
:1046B000491CB0FBF1F028E03068C0F30360401CF7
:1046C000B7FBF0F73D0000F02BF83168C1F3034170
:1046D000491CB0FBF1F018E0FFF790FF15E000F087
:1046E00068F812E000F05AF80FE000F035F80CE03E
:1046F00000F06EF809E04FF47A7006E0FFF75FFF14
:1047000003E0FFF743FF00E00020F2BD10B5040016
:104710006068DFF8241308602078FFF7ADFE10BD55
:1047200010B5DFF87C030078C0B2C0F38104002C20
:1047300007D0022C0BD007D3032C0BD100F048F884
:1047400009E000F009F806E0FFF7E9FE03E0FFF7F3
:10475000AAFE00E0002010BD80B5DFF8D40200788A
:10476000800704D4DFF83C020078800601D50020E1
:1047700013E0FFF7E7FE00280FD0DFF818231178C9
:10478000C1F341111278D209DFF81833C9B203EB33
:104790008101D2B231F81210484302BD80B5DFF872
:1047A00008030078800701D4002001E0FFF7B7FE7E
:1047B00002BD10B5FFF7C6FE0400FFF7B1FFC00849
:1047C000A04203D3002C01D0200000E0002010BD47
:1047D00010B5DFF8D0010078400601D4002020E0B9
:1047E000FFF7C0FE0400002C09D140F28A22DFF856
:1047F000AC11DFF8A402FEF711FAAFF30080DFF886
:104800009C020078C0B210F00700401CB4FBF0F02E
:10481000DFF898120978C9B211F01F01103148432E
:10482000400810BD010000207047F0B50300DFF81C
:1048300074412078C0F38105267816F00106DFF870
:10484000F4010778C7F342079446BE465FFA8CFC32
:104850005FFA8EFEF44527D0DFF84CC29CF800C00A
:104860005FEA8C7C01D4012D12D1B4465FFA8CFC36
:10487000BCF1010F0CD1DFF8B8C19CF800E01EF0CC
:10488000FE0E8CF800E094F800C05FEACC7CFAD40D
:1048900090F800C01CF0D00C5FEA420E1EF00E0E25
:1048A0005EEA0C0C80F800C0DFF884C19CF800E0E0
:1048B0001EF0FE0E11F0010050EA0E0E8CF800E022
:1048C000DFF8E40190F800C01CF0FC0C53EA0C0C7B
:1048D00080F800C0012D01D0980707D5207810F08E
:1048E00001008C465FFA8CFC6045F7D10020F0BDDA
:1048F00038B50400002C09D14FF45A72DFF89C102F
:10490000DFF8AC01FEF78AF9AFF300800020617890
:1049100011F007010843DFF884110870DFF88C21DB
:10492000137813F0E003A57815F01F052B431370DF
:104930000A78237853F040031A430A70DFF86011B5
:1049400009784906FAD531BD70B504002068FFF733
:104950000DFE0500DFF8586021793000FFF79DFD5E
:10496000DFF8CC100A7812F0C302280110F03000F2
:104970000243607902430A70A11D3000FFF783FDF6
:104980006079002807D03078000604D5DFF81001E0
:1049900000788007FAD570BD1C0000202469000053
:1049A00000400640064006400000002004000020B1
:1049B00000500640F8B505000C00002C09D140F26B
:1049C0009A62DFF8F010DFF8E800FEF727F9AFF39E
:1049D00000801748017811F0FD010170DFF8C80070
:1049E000017811F03B0151F080010170DFF8B060F7
:1049F000307810F01C000828F8D12C4F387810F0CF
:104A0000BF00387030788006FCD42000FFF770FFBC
:104A1000387850F04000387030788006FCD500209F
:104A2000F2BD000000700440D87600003075000030
:104A300001400640084006404480044001127A00CC
:104A40000250064070B505000E001400002C07D17E
:104A500040F2B27217491648FEF7E0F8AFF3008053
:104A60002800C0B2FFF7DEFE21003000C0B2FFF721
:104A7000A1FF0D48017811F03F010170084800784E
:104A8000C0B2C0F381000328F8D1002070BD00003F
:104A90000C00002003400640E4760000044006407D
:104AA00006400640307600000040064005400640C3
:104AB0009C77000024690000DFF8301611EB1041EC
:104AC0000A68012383401A430A60704738B505001D
:104AD0000024002C07D1DFF8180650F82400A84263
:104AE00001D0641CF5E7002C08D05C22DFF8041626
:104AF000DFF80406FEF792F8AFF30080200032BD25
:104B000038B505000C00002C08D16E22DFF8E41542
:104B1000DFF8E805FEF782F8AFF300802800FFF722
:104B2000D5FFDFF8DC1551F82000FFF7C5FF298815
:104B30004FF6F8700140207810F0070001432980FB
:104B40006078002804D0688850F04000688004E055
:104B50006A884FF6BF7002406A80B5F89C2047F61D
:104B600007400240A088000110F47C700243E07806
:104B7000012802D152F4004204E0E078022801D179
:104B800052F00802A5F89C20A078012806D1B5F8BB
:104B9000A80050F04000A5F8A80006E0B5F8A8105D
:104BA0004FF6BF700140A5F8A81031BDF8B504005C
:104BB000002C08D1B322DFF83C15DFF84005FEF7E2
:104BC0002DF8AFF3008006250026270032002900CB
:104BD0003800FCF70BFB05202070012060700020DE
:104BE000A0700020E0701A20A080F1BD38B505004B
:104BF0000C00002C08D1D822DFF8F814DFF8FC04F0
:104C0000FEF70CF8AFF3008069884FF6C0700140E2
:104C1000207810F03F0001436980B5F89E204CF6E3
:104C2000FF700240E078012801D152F4005220794F
:104C3000012801D152F48052A5F89E20B5F8A610A3
:104C40004FF6FC700140A07810F003000143A5F876
:104C5000A610B5F8A8304FF6F8700340A07910F010
:104C600007000343A5F8A83031BD38B505000C0096
:104C7000002C08D1FA22DFF87C14DFF88004FDF75D
:104C8000CDFFAFF30080B5F89E108904890CE07861
:104C9000012801D151F400412079012801D151F4BA
:104CA0008041A5F89E10B5F8A6204CF2F300024012
:104CB0002088000210F47C50A3789B0013F00C03B2
:104CC00018430243A5F8A620B5F8A8304FF6C770E0
:104CD0000340E088C00010F038000343A5F8A83076
:104CE00031BD70B505000E001400002C09D14FF441
:104CF0008F72DFF80014DFF80404FDF78FFFAFF3C5
:104D00000080300080B2C00703D521002800FFF7E3
:104D10006DFF300080B2800703D521002800FFF727
:104D2000A4FF70BDF8B50400002C09D14FF49E72A9
:104D3000DFF8C013DFF8C403FDF770FFAFF30080A6
:104D4000082500262700320029003800FCF74EFA1B
:104D5000042020800020A0700020E070002020713E
:104D60000020E080F1BD10B40B009BB2DB070DD535
:104D70001300DBB2002B05D004884BF6FF731C40F8
:104D8000048003E0038853F4804303800B009BB24C
:104D90009B070DD51300DBB2002B05D044884BF6E2
:104DA000FF731C40448003E0438853F480434380F6
:104DB00010BC704710B40B009BB2DB0711D5130079
:104DC000DBB2002B07D0B0F89C404FF6FE731C40BE
:104DD000A0F89C4005E0B0F89C3053F00103A0F827
:104DE0009C300B009BB29B0711D51300DBB2002B4C
:104DF00007D0B0F89C404FF6FD731C40A0F89C40D3
:104E000005E0B0F89C3053F00203A0F89C3010BCD1
:104E10007047010000204A8A120401D550F00800B2
:104E20004A8A520401D550F010004A8A120501D571
:104E300050F020004A8AD20401D550F040004A8A3E
:104E4000520501D550F001004A8A920501D550F073
:104E500002004A8AD20501D550F00400B1F89C2026
:104E6000520501D550F08000B1F89C20120501D503
:104E700050F4807080B2704770B505000E001400C9
:104E8000002C07D140F2A3229A499C48FDF7C6FEA8
:104E9000AFF30080300080B2102807D34FF429729E
:104EA00094499848FDF7BAFEAFF3008020880428A3
:104EB00005D32088082817D320880C2814D2A0787E
:104EC000002808D02A88904823885B0830F813000F
:104ED00002432A8028E02A888B4823885B0830F820
:104EE000130082432A801FE02088042802D32088F0
:104EF000082805D320880C2816D32088102813D220
:104F0000A078002808D06A887F4823885B0830F89A
:104F1000130002436A8007E06A887B4823885B08A5
:104F200030F8130082436A80300080B2082811D222
:104F3000A88803233200D2B2520013FA02F230EAF8
:104F4000020223793000C0B2400083401A431100AE
:104F5000A98016E0300080B2102812D2083EE888FE
:104F600003233200D2B2520013FA02F230EA0202F4
:104F700023793000C0B2400083401A431100E98019
:104F80000836300080B2042811D228890F2332005D
:104F9000D2B2920013FA02F230EA02022388300001
:104FA000C0B2800083401A431100298146E03000DE
:104FB00080B2082813D2361F68890F233200D2B27C
:104FC000920013FA02F230EA020223883000C0B2E3
:104FD000800083401A4311006981361D2EE03000A5
:104FE00080B20C2813D2083EA8890F233200D2B217
:104FF000920013FA02F230EA020223883000C0B2B3
:10500000800083401A431100A981083616E0300061
:1050100080B2102812D20C3EE8890F233200D2B29F
:10502000920013FA02F230EA020223883000C0B282
:10503000800083401A431100E9810C362089320038
:1050400092B205EB42029087E088320092B205EB03
:105050004202A2F85C006089320092B205EB420283
:10506000A2F87C002088082813D2B5F8A0000323FA
:105070002288D2B2520013FA02F230EA0202E37836
:105080002088C0B2400083401A431100A5F8A01048
:1050900017E02088102814D2B5F8A2000323228834
:1050A000083AD2B2520013FA02F230EA0202E3786E
:1050B00020880838C0B2400083401A431100A5F888
:1050C000A210207B002807D0B5F8A4000122B2402E
:1050D0001043A5F8A40006E0B5F8A4000122B240F0
:1050E0009043A5F8A40070BD0000000000700440CB
:1050F0005C7900009C68000090700000CC76000095
:10510000607900001C7500002076000010B40123B7
:105110001400E4B2002C03D113FA01F4846002E01D
:1051200013FA01F4446010BC704780B500F0A2FA95
:1051300000F0F5FA00F065FB00F06FFB00F0C2FB39
:1051400000F00CFBFEF76CFCFEF7A6FC00F06AFD1D
:1051500000F0FEFD00F0C9FDFEF7C5FC00F066FEA4
:1051600000F0F3F9FBF785FAFEE72DE9F0410400C2
:105170004FF49676DFF84074002038705FF0000836
:105180004046C0B2042807DA4046C0B238444078EE
:10519000050018F10108F3E7DFF8200400F060FED5
:1051A0000422791CDFF81804FEF77FFB00208046FC
:1051B0004046C0B204280DDA4046C0B238444078B8
:1051C00005002900C9B2DFF8FC0300F049FE18F120
:1051D0000108EDE77878012819D100230322F97836
:1051E000DFF8E4030068FBF7D3FDDFF8E00300F02D
:1051F00037FE002080464046C0B20A2807DA404603
:10520000C0B238444078050018F10108F3E7787817
:10521000022807D100230322F978DFF8B4030068DD
:10522000FBF7B6FD3000FBF7FDF9B5E72DE9FE43CE
:1052300005000127FBF7CEFA80460020ADF80400F8
:105240005FF001094B466A465FF0FF310020FBF733
:105250004DFD0400012C07D10099DFF8780300F020
:10526000FFFD0098060009E0DFF86C1308680028CD
:1052700001D1012000E00020C0B20860A02E10D1B2
:105280003220DFF85813088001221221DFF8500382
:10529000FFF73CFFFEF700FCDFF848130860FEF75D
:1052A000FFFC5FF08050DFF840130860BFF34F8FC2
:1052B000BFF36F8FC6E72DE9F14F88B000250026B8
:1052C00000275FF0000800208DF8040000208DF812
:1052D000030000208DF8020000208DF8010000205E
:1052E0008DF800005FF00009C8200590FBF772FA06
:1052F0000690642004905FF0000A002000F0A2FBFA
:105300000500049B02AA5FF0FF310020FBF7EEFCD2
:105310000390039801282ED1029804002100B3487D
:1053200000F09EFD012C01D101200500022C01D1CD
:1053300002200500042C01D103200500072C01D117
:1053400004200500062C01D105200500092C01D1FF
:10535000062005000A2C01D1072005000C2C01D1E4
:10536000082005000E2C01D109200500122C08D1BF
:105370000A20050005E000209D49086000209649AC
:1053800008602800C0B2002800F0D6802800C0B213
:1053900001280AD0C0F0D08003286CD03FD3052864
:1053A00000F0A480C0F08280C6E09248FDF700FDC6
:1053B00019F101094846C0B2012803D08E4840784F
:1053C00001281CD101208246761C3000C0B2FF2883
:1053D00001D10320060088484178012903D100212A
:1053E000417002200600002303225146C9B27848CA
:1053F0000068FBF7CDFC814800F032FD0EE0012093
:10540000824600208146002303225146C9B27048DB
:105410000068FBF7BDFC7A4800F022FD8CE079487B
:10542000FDF7C6FC18F101084046C0B2012812D1B0
:10543000A02082460520060000206F494870002306
:1054400003225146C9B270480068FBF7A1FC6F48BF
:1054500000F006FD0EE0A1208246002080460023D9
:1054600003225146C9B268480068FBF791FC6848BE
:1054700000F0F6FC60E0DFF880B19BF80000401C13
:105480008BF800009BF800106248FDF791FC9BF838
:105490000000012806D100205549086000204E492F
:1054A000086002E000208BF8000045E05A48FDF754
:1054B0007FFC7F1C3800C0B201280AD1012082463F
:1054C000002303225146C9B241480068FBF760FC43
:1054D0000BE00020824600200700002303225146F3
:1054E000C9B23B480068FBF753FC25E04B48FDF789
:1054F0005FFC7F1C3800C0B2012803D03E484078D2
:1055000001280DD100203C49487005208246002327
:1055100003225146C9B23C480068FBF739FC0BE056
:105520000420824600200700002303225146C9B20E
:1055300035480068FBF72CFC5FF080502A49086072
:10554000BFF34F8FBFF36F8FD7E6E0B534480190BC
:105550000120009000234FF4807232493248FAF75C
:1055600057FF294801900320009000234FF48062E8
:105570002E492F48FAF74CFF134801900420009061
:1055800000234FF480722B492B48FAF741FF07BDE7
:1055900080B502212948FEF799FD0022122110480A
:1055A000FFF7B4FD0120144948702548FDF700FCC1
:1055B000BFF34F8F01BD0000DC2800207076000093
:1055C00000B00640A0730000D8280020BC73000083
:1055D000D0280020A87500001818FE4310000020F5
:1055E00000F10F401400002004ED00E0BC75000045
:1055F0001C18FE4380760000702A0020D87300003B
:10560000D0750000E4750000D4280020F473000079
:10561000F8750000C0740000D87400001074000019
:10562000CC280020447700006B5100005077000028
:105630002D5200005C770000B752000000F00F40D0
:105640002C740000274911EB10410A6801238340A4
:105650001A430A60704710B450F8213033F4E06305
:105660001400E4B2240214F4E064234340F821302F
:1056700010BC704710B51C48FFF7E4FF1B48FFF74C
:10568000E1FF1B4C062200212000FFF7E4FF062269
:1056900001212000FFF7DFFF062202212000FFF793
:1056A000DAFF062203212000FFF7D5FF052204219F
:1056B0002000FFF7D0FF052205212000FFF7CBFFD8
:1056C0000C4C032200212000FFF7C5FF032201211B
:1056D0002000FFF7C0FF0848016831F0D0010160E9
:1056E00010BD0000007004400C0038100D00381090
:1056F00000C0044000D00440108004402D490860E0
:1057000070472D482A49086070472C490A7812F0E2
:10571000C702C30013F038031A430A70704710B56C
:10572000FFF7EFFF274C2000FFF70EF92068FFF787
:10573000E5FF254C2079FFF7E8FFE21D002100205E
:10574000FFF780F9E278A1786078FFF76EF81F48DC
:10575000FEF7DCFF1E481A49086010BD80B500F056
:1057600001F801BD1B48016851F0807101601A48C1
:10577000016851F001010160704730B4174A1368A5
:105780000F490968164CB1FBF4F404FB00F4E1186E
:105790008B4203D215688D4206D2FBE71568A942F9
:1057A000FCD315688D42FCD330BC7047000000006C
:1057B000448004401C000020000007110040064007
:1057C0000C00002094770000C07600008C77000069
:1057D00000BD0105FCED00E0001000E0041000E059
:1057E00040420F0010B504004FF47A7000FB04F043
:1057F000FFF7C3FF10BD10B504002000FFF7F2FF54
:1058000010BD10B5FEF715FF0400230001225FF460
:10581000E1310120FDF753FA10BD80B504220721C4
:105820000320FEF7C1FD042206210320FEF7BCFD84
:1058300001BDFEE7010049B200290AD4012210F09F
:105840001F018A40DFF8581303005BB25B0941F87F
:1058500023207047DFF84C1311EB10410A68012335
:1058600083401A430A60704710B5040020007FF09F
:105870007F0140B2884201D1012004E0200040B203
:10588000FFF7D8FF002010BD10B450F8213033F4DA
:10589000E0631400E4B2240214F4E064234340F80B
:1058A000213010BC704710B450F8213033F470230D
:1058B0001400E4B2240414F47024234340F821308B
:1058C00010BC70477CB5B8480088ADF80000B748F8
:1058D000FFF7C0FFB648FFF7BDFFB648FFF7BAFFB6
:1058E000B54C01221E212000FFF7CEFF01221D2111
:1058F0002000FFF7C9FF012218212000FFF7C4FF95
:10590000012219212000FFF7BFFFAC4C0122012129
:105910002000FFF7B9FF012202212000FFF7B4FFAA
:10592000012204212000FFF7AFFF01220521200002
:10593000FFF7AAFF01220C212000FFF7A5FF01229B
:105940000D212000FFF7A0FF012203219C48FFF753
:105950009BFF9C4D6A4601212800FEF795FB9A4E5D
:105960006A4619213000FEF78FFB6A461821300085
:10597000FEF78AFB6A460C212800FEF785FB6A4683
:105980000D212800FEF780FB6A4602212800FEF761
:105990007BFB6A4604212800FEF776FB6A46052158
:1059A0002800FEF771FB6A461E213000FEF76CFBF3
:1059B0006A461D213000FEF767FB02221D210420EC
:1059C000FEF70EFC02221E210420FEF709FC022233
:1059D00018210420FEF704FC022219210420FEF7FE
:1059E000FFFB022201210020FEF7FAFB0222022126
:1059F0000020FEF7F5FB022204210020FEF7F0FB59
:105A0000022205210020FEF7EBFB02220C210020E0
:105A1000FEF7E6FB02220D210020FEF7E1FB022249
:105A200003210220FEF7DCFB0B2201212000FFF7FF
:105A30003AFF3B20FFF718FF6A4601212800FEF7D6
:105A400023FB73BD70B504002000C0B2012802D151
:105A500001205E4908705D4D2878002878D05C4EA2
:105A6000306801281FD05B48006801281BD05A48C5
:105A70000068012817D059480068012813D05848F9
:105A8000006801280FD05748006801280BD05648FD
:105A90000068012807D055480068012803D0544801
:105AA0000068012854D10A20FFF7A5FE00202870C5
:105AB0003068012804D130680128FCD001206EE054
:105AC00044480168012904D101680129FCD0022061
:105AD00065E041480168012904D101680129FCD031
:105AE00003205CE03D480168012904D101680129D7
:105AF000FCD0042053E03A480168012904D1016830
:105B00000129FCD005204AE036480168012904D16A
:105B100001680129FCD0062041E0334801680129D1
:105B200004D101680129FCD0072038E02F48016822
:105B3000012904D101680129FCD008202FE02C485C
:105B4000016801292AD101680129FCD0092026E039
:105B50001F480068002821D11E48006800281DD178
:105B60001D480068002819D11C480068002815D17C
:105B70001B480068002811D11A48006800280DD180
:105B800019480068002809D118480068002805D184
:105B900017480068002801D101202870002070BD3E
:105BA00000E100E000700440563300000D003810A2
:105BB000090038100B00381000D004400090044059
:105BC00000B0044000F00F4000F10F401200002030
:105BD0007422FE436422FE436022FE433002FE43F1
:105BE0003402FE430802FE431002FE431402FE4349
:105BF0007822FE43424911EB10410A680123834099
:105C00001A430A60704710B450F8213033F4E0634F
:105C10001400E4B2240214F4E064234340F8213079
:105C200010BC70471CB537480088ADF800003648F6
:105C3000FFF7E0FF3548FFF7DDFF3548FFF7DAFFF4
:105C4000344C012207212000FFF7DDFF012206214D
:105C50002000FFF7D8FF012204212000FFF7D3FF27
:105C60002D4C012213212000FFF7CDFF012211212D
:105C70002000FFF7C8FF012200212000FFF7C3FF2B
:105C8000012213212548FFF7BEFF254C6A46072154
:105C90002000FEF7F9F96A4606212000FEF7F4F924
:105CA0006A4604212000FEF7EFF91E4C6A461321D4
:105CB0002000FEF7E9F96A4611212000FEF7E4F919
